{
  "_format": "hh-sol-artifact-1",
  "contractName": "RecurringPull",
  "sourceName": "contracts/RecurringPull.sol",
  "abi": [
    {
      "inputs": [
        {
          "internalType": "address",
          "name": "_executor",
          "type": "address"
        }
      ],
      "stateMutability": "nonpayable",
      "type": "constructor"
    },
    {
      "inputs": [
        {
          "internalType": "address",
          "name": "owner",
          "type": "address"
        }
      ],
      "name": "OwnableInvalidOwner",
      "type": "error"
    },
    {
      "inputs": [
        {
          "internalType": "address",
          "name": "account",
          "type": "address"
        }
      ],
      "name": "OwnableUnauthorizedAccount",
      "type": "error"
    },
    {
      "anonymous": false,
      "inputs": [
        {
          "indexed": true,
          "internalType": "address",
          "name": "executor",
          "type": "address"
        }
      ],
      "name": "ExecutorSet",
      "type": "event"
    },
    {
      "anonymous": false,
      "inputs": [
        {
          "indexed": true,
          "internalType": "address",
          "name": "previousOwner",
          "type": "address"
        },
        {
          "indexed": true,
          "internalType": "address",
          "name": "newOwner",
          "type": "address"
        }
      ],
      "name": "OwnershipTransferred",
      "type": "event"
    },
    {
      "anonymous": false,
      "inputs": [
        {
          "indexed": true,
          "internalType": "address",
          "name": "from",
          "type": "address"
        },
        {
          "indexed": true,
          "internalType": "address",
          "name": "to",
          "type": "address"
        },
        {
          "indexed": false,
          "internalType": "uint256",
          "name": "amount",
          "type": "uint256"
        },
        {
          "indexed": true,
          "internalType": "bytes32",
          "name": "scheduleId",
          "type": "bytes32"
        },
        {
          "indexed": false,
          "internalType": "address",
          "name": "token",
          "type": "address"
        },
        {
          "indexed": false,
          "internalType": "uint256",
          "name": "timestamp",
          "type": "uint256"
        }
      ],
      "name": "PaymentPulled",
      "type": "event"
    },
    {
      "inputs": [],
      "name": "executor",
      "outputs": [
        {
          "internalType": "address",
          "name": "",
          "type": "address"
        }
      ],
      "stateMutability": "view",
      "type": "function"
    },
    {
      "inputs": [],
      "name": "owner",
      "outputs": [
        {
          "internalType": "address",
          "name": "",
          "type": "address"
        }
      ],
      "stateMutability": "view",
      "type": "function"
    },
    {
      "inputs": [
        {
          "internalType": "address",
          "name": "token",
          "type": "address"
        },
        {
          "internalType": "address",
          "name": "from",
          "type": "address"
        },
        {
          "internalType": "address",
          "name": "to",
          "type": "address"
        },
        {
          "internalType": "uint256",
          "name": "amount",
          "type": "uint256"
        },
        {
          "internalType": "bytes32",
          "name": "scheduleId",
          "type": "bytes32"
        }
      ],
      "name": "pullPayment",
      "outputs": [
        {
          "internalType": "bool",
          "name": "",
          "type": "bool"
        }
      ],
      "stateMutability": "nonpayable",
      "type": "function"
    },
    {
      "inputs": [],
      "name": "renounceOwnership",
      "outputs": [],
      "stateMutability": "nonpayable",
      "type": "function"
    },
    {
      "inputs": [
        {
          "internalType": "address",
          "name": "_executor",
          "type": "address"
        }
      ],
      "name": "setExecutor",
      "outputs": [],
      "stateMutability": "nonpayable",
      "type": "function"
    },
    {
      "inputs": [
        {
          "internalType": "address",
          "name": "newOwner",
          "type": "address"
        }
      ],
      "name": "transferOwnership",
      "outputs": [],
      "stateMutability": "nonpayable",
      "type": "function"
    }
  ],
  "bytecode": "0x608060405234801561001057600080fd5b50604051610cf5380380610cf583398181016040528101906100329190610266565b33600073ffffffffffffffffffffffffffffffffffffffff168173ffffffffffffffffffffffffffffffffffffffff16036100a55760006040517f1e4fbdf700000000000000000000000000000000000000000000000000000000815260040161009c91906102a2565b60405180910390fd5b6100b48161013f60201b60201c565b5080600160006101000a81548173ffffffffffffffffffffffffffffffffffffffff021916908373ffffffffffffffffffffffffffffffffffffffff1602179055508073ffffffffffffffffffffffffffffffffffffffff167f3e3c5e6d5b512eaa5d5a80669846cfbaf8bde70fc6f7a3be9828cffc9ba5f1db60405160405180910390a2506102bd565b60008060009054906101000a900473ffffffffffffffffffffffffffffffffffffffff169050816000806101000a81548173ffffffffffffffffffffffffffffffffffffffff021916908373ffffffffffffffffffffffffffffffffffffffff1602179055508173ffffffffffffffffffffffffffffffffffffffff168173ffffffffffffffffffffffffffffffffffffffff167f8be0079c531659141344cd1fd0a4f28419497f9722a3daafe3b4186f6b6457e060405160405180910390a35050565b600080fd5b600073ffffffffffffffffffffffffffffffffffffffff82169050919050565b600061023382610208565b9050919050565b61024381610228565b811461024e57600080fd5b50565b6000815190506102608161023a565b92915050565b60006020828403121561027c5761027b610203565b5b600061028a84828501610251565b91505092915050565b61029c81610228565b82525050565b60006020820190506102b76000830184610293565b92915050565b610a29806102cc6000396000f3fe608060405234801561001057600080fd5b50600436106100625760003560e01c80631c3c0ea814610067578063715018a6146100835780638da5cb5b1461008d578063c34c08e5146100ab578063f20ca1b5146100c9578063f2fde38b146100f9575b600080fd5b610081600480360381019061007c9190610654565b610115565b005b61008b6101a4565b005b6100956101b8565b6040516100a29190610690565b60405180910390f35b6100b36101e1565b6040516100c09190610690565b60405180910390f35b6100e360048036038101906100de9190610717565b610207565b6040516100f091906107ad565b60405180910390f35b610113600480360381019061010e9190610654565b610418565b005b61011d61049e565b80600160006101000a81548173ffffffffffffffffffffffffffffffffffffffff021916908373ffffffffffffffffffffffffffffffffffffffff1602179055508073ffffffffffffffffffffffffffffffffffffffff167f3e3c5e6d5b512eaa5d5a80669846cfbaf8bde70fc6f7a3be9828cffc9ba5f1db60405160405180910390a250565b6101ac61049e565b6101b66000610525565b565b60008060009054906101000a900473ffffffffffffffffffffffffffffffffffffffff16905090565b600160009054906101000a900473ffffffffffffffffffffffffffffffffffffffff1681565b6000600160009054906101000a900473ffffffffffffffffffffffffffffffffffffffff1673ffffffffffffffffffffffffffffffffffffffff163373ffffffffffffffffffffffffffffffffffffffff1614610299576040517f08c379a000000000000000000000000000000000000000000000000000000000815260040161029090610825565b60405180910390fd5b600083116102dc576040517f08c379a00000000000000000000000000000000000000000000000000000000081526004016102d390610891565b60405180910390fd5b60008673ffffffffffffffffffffffffffffffffffffffff166323b872dd8787876040518463ffffffff1660e01b815260040161031b939291906108c0565b6020604051808303816000875af115801561033a573d6000803e3d6000fd5b505050506040513d601f19601f8201168201806040525081019061035e9190610923565b9050806103a0576040517f08c379a00000000000000000000000000000000000000000000000000000000081526004016103979061099c565b60405180910390fd5b828573ffffffffffffffffffffffffffffffffffffffff168773ffffffffffffffffffffffffffffffffffffffff167f1bfccb13a44a003d1bc0f4c956a5f6eb4b4e600cbb76e05e27a0c96b2eee3f2b878b42604051610402939291906109bc565b60405180910390a4600191505095945050505050565b61042061049e565b600073ffffffffffffffffffffffffffffffffffffffff168173ffffffffffffffffffffffffffffffffffffffff16036104925760006040517f1e4fbdf70000000000000000000000000000000000000000000000000000000081526004016104899190610690565b60405180910390fd5b61049b81610525565b50565b6104a66105e9565b73ffffffffffffffffffffffffffffffffffffffff166104c46101b8565b73ffffffffffffffffffffffffffffffffffffffff1614610523576104e76105e9565b6040517f118cdaa700000000000000000000000000000000000000000000000000000000815260040161051a9190610690565b60405180910390fd5b565b60008060009054906101000a900473ffffffffffffffffffffffffffffffffffffffff169050816000806101000a81548173ffffffffffffffffffffffffffffffffffffffff021916908373ffffffffffffffffffffffffffffffffffffffff1602179055508173ffffffffffffffffffffffffffffffffffffffff168173ffffffffffffffffffffffffffffffffffffffff167f8be0079c531659141344cd1fd0a4f28419497f9722a3daafe3b4186f6b6457e060405160405180910390a35050565b600033905090565b600080fd5b600073ffffffffffffffffffffffffffffffffffffffff82169050919050565b6000610621826105f6565b9050919050565b61063181610616565b811461063c57600080fd5b50565b60008135905061064e81610628565b92915050565b60006020828403121561066a576106696105f1565b5b60006106788482850161063f565b91505092915050565b61068a81610616565b82525050565b60006020820190506106a56000830184610681565b92915050565b6000819050919050565b6106be816106ab565b81146106c957600080fd5b50565b6000813590506106db816106b5565b92915050565b6000819050919050565b6106f4816106e1565b81146106ff57600080fd5b50565b600081359050610711816106eb565b92915050565b600080600080600060a08688031215610733576107326105f1565b5b60006107418882890161063f565b95505060206107528882890161063f565b94505060406107638882890161063f565b9350506060610774888289016106cc565b925050608061078588828901610702565b9150509295509295909350565b60008115159050919050565b6107a781610792565b82525050565b60006020820190506107c2600083018461079e565b92915050565b600082825260208201905092915050565b7f4f6e6c79206578656375746f7200000000000000000000000000000000000000600082015250565b600061080f600d836107c8565b915061081a826107d9565b602082019050919050565b6000602082019050818103600083015261083e81610802565b9050919050565b7f616d6f756e743d30000000000000000000000000000000000000000000000000600082015250565b600061087b6008836107c8565b915061088682610845565b602082019050919050565b600060208201905081810360008301526108aa8161086e565b9050919050565b6108ba816106ab565b82525050565b60006060820190506108d56000830186610681565b6108e26020830185610681565b6108ef60408301846108b1565b949350505050565b61090081610792565b811461090b57600080fd5b50565b60008151905061091d816108f7565b92915050565b600060208284031215610939576109386105f1565b5b60006109478482850161090e565b91505092915050565b7f7472616e7366657246726f6d206661696c656400000000000000000000000000600082015250565b60006109866013836107c8565b915061099182610950565b602082019050919050565b600060208201905081810360008301526109b581610979565b9050919050565b60006060820190506109d160008301866108b1565b6109de6020830185610681565b6109eb60408301846108b1565b94935050505056fea26469706673582212208577d9d29f9954ea236bac1b1ec0b1acd8a5c56cd436cf8539126f3b7d9f623a64736f6c634300081c0033",
  "linkReferences": {},
  "deployedLinkReferences": {}
}